{
  "contractName": "StarterContract",
  "abi": [
    {
      "inputs": [],
      "payable": false,
      "stateMutability": "nonpayable",
      "type": "constructor"
    },
    {
      "constant": true,
      "inputs": [
        {
          "internalType": "uint256",
          "name": "",
          "type": "uint256"
        }
      ],
      "name": "hashPerson",
      "outputs": [
        {
          "internalType": "bytes32",
          "name": "",
          "type": "bytes32"
        }
      ],
      "payable": false,
      "stateMutability": "view",
      "type": "function"
    },
    {
      "constant": true,
      "inputs": [
        {
          "internalType": "bytes32",
          "name": "",
          "type": "bytes32"
        }
      ],
      "name": "personsHash",
      "outputs": [
        {
          "internalType": "uint256",
          "name": "age",
          "type": "uint256"
        },
        {
          "internalType": "string",
          "name": "name",
          "type": "string"
        },
        {
          "internalType": "string",
          "name": "contact_address",
          "type": "string"
        }
      ],
      "payable": false,
      "stateMutability": "view",
      "type": "function"
    },
    {
      "constant": false,
      "inputs": [
        {
          "internalType": "uint256",
          "name": "_age",
          "type": "uint256"
        },
        {
          "internalType": "string",
          "name": "_name",
          "type": "string"
        },
        {
          "internalType": "string",
          "name": "_contactAddress",
          "type": "string"
        }
      ],
      "name": "addCreator",
      "outputs": [],
      "payable": false,
      "stateMutability": "nonpayable",
      "type": "function"
    },
    {
      "constant": true,
      "inputs": [],
      "name": "getCretors",
      "outputs": [
        {
          "components": [
            {
              "internalType": "uint256",
              "name": "age",
              "type": "uint256"
            },
            {
              "internalType": "string",
              "name": "name",
              "type": "string"
            },
            {
              "internalType": "string",
              "name": "contact_address",
              "type": "string"
            }
          ],
          "internalType": "struct StarterContract.Person[]",
          "name": "",
          "type": "tuple[]"
        }
      ],
      "payable": false,
      "stateMutability": "view",
      "type": "function"
    },
    {
      "constant": false,
      "inputs": [
        {
          "internalType": "uint256",
          "name": "index",
          "type": "uint256"
        }
      ],
      "name": "removePerson",
      "outputs": [],
      "payable": false,
      "stateMutability": "nonpayable",
      "type": "function"
    },
    {
      "constant": true,
      "inputs": [
        {
          "internalType": "string",
          "name": "_name",
          "type": "string"
        }
      ],
      "name": "getPerson",
      "outputs": [
        {
          "components": [
            {
              "internalType": "uint256",
              "name": "age",
              "type": "uint256"
            },
            {
              "internalType": "string",
              "name": "name",
              "type": "string"
            },
            {
              "internalType": "string",
              "name": "contact_address",
              "type": "string"
            }
          ],
          "internalType": "struct StarterContract.Person",
          "name": "",
          "type": "tuple"
        }
      ],
      "payable": false,
      "stateMutability": "view",
      "type": "function"
    }
  ],
  "bytecode": "0x608060405234801561001057600080fd5b50336000806101000a81548173ffffffffffffffffffffffffffffffffffffffff021916908373ffffffffffffffffffffffffffffffffffffffff16021790555061138a806100606000396000f3fe608060405234801561001057600080fd5b50600436106100625760003560e01c806343817d72146100675780635b10c588146100835780635ff56410146100a1578063ac193c6e146100d1578063e2c93c2914610103578063e907247c1461011f575b600080fd5b610081600480360361007c9190810190610d5e565b61014f565b005b61008b6102eb565b60405161009891906110b4565b60405180910390f35b6100bb60048036036100b69190810190610d35565b610498565b6040516100c891906110d6565b60405180910390f35b6100eb60048036036100e69190810190610ccb565b6104b9565b6040516100fa93929190611198565b60405180910390f35b61011d60048036036101189190810190610d35565b610613565b005b61013960048036036101349190810190610cf4565b61080c565b6040516101469190611131565b60405180910390f35b610157610ab8565b83816000018181525050828160200181905250818160400181905250600281908060018154018082558091505090600182039060005260206000209060030201600090919290919091506000820151816000015560208201518160010190805190602001906101c7929190610ad9565b5060408201518160020190805190602001906101e4929190610ad9565b5050505060006101f5858585610a82565b90506001819080600181540180825580915050906001820390600052602060002001600090919290919091505550816003600083815260200190815260200160002060008201518160000155602082015181600101908051906020019061025d929190610ad9565b50604082015181600201908051906020019061027a929190610ad9565b509050508160048560405161028f919061109d565b90815260200160405180910390206000820151816000015560208201518160010190805190602001906102c3929190610ad9565b5060408201518160020190805190602001906102e0929190610ad9565b509050505050505050565b60606002805480602002602001604051908101604052809291908181526020016000905b8282101561048f578382906000526020600020906003020160405180606001604052908160008201548152602001600182018054600181600116156101000203166002900480601f0160208091040260200160405190810160405280929190818152602001828054600181600116156101000203166002900480156103d55780601f106103aa576101008083540402835291602001916103d5565b820191906000526020600020905b8154815290600101906020018083116103b857829003601f168201915b50505050508152602001600282018054600181600116156101000203166002900480601f0160208091040260200160405190810160405280929190818152602001828054600181600116156101000203166002900480156104775780601f1061044c57610100808354040283529160200191610477565b820191906000526020600020905b81548152906001019060200180831161045a57829003601f168201915b5050505050815250508152602001906001019061030f565b50505050905090565b600181815481106104a557fe5b906000526020600020016000915090505481565b6003602052806000526040600020600091509050806000015490806001018054600181600116156101000203166002900480601f01602080910402602001604051908101604052809291908181526020018280546001816001161561010002031660029004801561056b5780601f106105405761010080835404028352916020019161056b565b820191906000526020600020905b81548152906001019060200180831161054e57829003601f168201915b505050505090806002018054600181600116156101000203166002900480601f0160208091040260200160405190810160405280929190818152602001828054600181600116156101000203166002900480156106095780601f106105de57610100808354040283529160200191610609565b820191906000526020600020905b8154815290600101906020018083116105ec57829003601f168201915b5050505050905083565b6000809054906101000a900473ffffffffffffffffffffffffffffffffffffffff1673ffffffffffffffffffffffffffffffffffffffff163373ffffffffffffffffffffffffffffffffffffffff16146106a2576040517f08c379a000000000000000000000000000000000000000000000000000000000815260040161069990611111565b60405180910390fd5b6611c37937e080003373ffffffffffffffffffffffffffffffffffffffff16311015610703576040517f08c379a00000000000000000000000000000000000000000000000000000000081526004016106fa906110f1565b60405180910390fd5b60008190505b6001600280549050038110156107bc576002600182018154811061072957fe5b90600052602060002090600302016002828154811061074457fe5b90600052602060002090600302016000820154816000015560018201816001019080546001816001161561010002031660029004610783929190610b59565b50600282018160020190805460018160011615610100020316600290046107ab929190610b59565b509050508080600101915050610709565b5060028054806107c857fe5b60019003818190600052602060002090600302016000808201600090556001820160006107f59190610be0565b6002820160006108059190610be0565b5050905550565b610814610ab8565b6000809054906101000a900473ffffffffffffffffffffffffffffffffffffffff1673ffffffffffffffffffffffffffffffffffffffff163373ffffffffffffffffffffffffffffffffffffffff16146108a3576040517f08c379a000000000000000000000000000000000000000000000000000000000815260040161089a90611111565b60405180910390fd5b6611c37937e080003373ffffffffffffffffffffffffffffffffffffffff16311015610904576040517f08c379a00000000000000000000000000000000000000000000000000000000081526004016108fb906110f1565b60405180910390fd5b600482604051610914919061109d565b908152602001604051809103902060405180606001604052908160008201548152602001600182018054600181600116156101000203166002900480601f0160208091040260200160405190810160405280929190818152602001828054600181600116156101000203166002900480156109d05780601f106109a5576101008083540402835291602001916109d0565b820191906000526020600020905b8154815290600101906020018083116109b357829003601f168201915b50505050508152602001600282018054600181600116156101000203166002900480601f016020809104026020016040519081016040528092919081815260200182805460018160011615610100020316600290048015610a725780601f10610a4757610100808354040283529160200191610a72565b820191906000526020600020905b815481529060010190602001808311610a5557829003601f168201915b5050505050815250509050919050565b6000838383604051602001610a9993929190611153565b6040516020818303038152906040528051906020012090509392505050565b60405180606001604052806000815260200160608152602001606081525090565b828054600181600116156101000203166002900490600052602060002090601f016020900481019282601f10610b1a57805160ff1916838001178555610b48565b82800160010185558215610b48579182015b82811115610b47578251825591602001919060010190610b2c565b5b509050610b559190610c28565b5090565b828054600181600116156101000203166002900490600052602060002090601f016020900481019282601f10610b925780548555610bcf565b82800160010185558215610bcf57600052602060002091601f016020900482015b82811115610bce578254825591600101919060010190610bb3565b5b509050610bdc9190610c28565b5090565b50805460018160011615610100020316600290046000825580601f10610c065750610c25565b601f016020900490600052602060002090810190610c249190610c28565b5b50565b610c4a91905b80821115610c46576000816000905550600101610c2e565b5090565b90565b600081359050610c5c81611319565b92915050565b600082601f830112610c7357600080fd5b8135610c86610c818261120a565b6111dd565b91508082526020830160208301858383011115610ca257600080fd5b610cad8382846112c6565b50505092915050565b600081359050610cc581611330565b92915050565b600060208284031215610cdd57600080fd5b6000610ceb84828501610c4d565b91505092915050565b600060208284031215610d0657600080fd5b600082013567ffffffffffffffff811115610d2057600080fd5b610d2c84828501610c62565b91505092915050565b600060208284031215610d4757600080fd5b6000610d5584828501610cb6565b91505092915050565b600080600060608486031215610d7357600080fd5b6000610d8186828701610cb6565b935050602084013567ffffffffffffffff811115610d9e57600080fd5b610daa86828701610c62565b925050604084013567ffffffffffffffff811115610dc757600080fd5b610dd386828701610c62565b9150509250925092565b6000610de98383611028565b905092915050565b6000610dfc82611246565b610e068185611274565b935083602082028501610e1885611236565b8060005b85811015610e545784840389528151610e358582610ddd565b9450610e4083611267565b925060208a01995050600181019050610e1c565b50829750879550505050505092915050565b610e6f816112b2565b82525050565b6000610e808261125c565b610e8a8185611296565b9350610e9a8185602086016112d5565b610ea381611308565b840191505092915050565b6000610eb98261125c565b610ec381856112a7565b9350610ed38185602086016112d5565b80840191505092915050565b6000610eea82611251565b610ef48185611285565b9350610f048185602086016112d5565b610f0d81611308565b840191505092915050565b6000610f2382611251565b610f2d8185611296565b9350610f3d8185602086016112d5565b610f4681611308565b840191505092915050565b6000610f5e601d83611296565b91507f53686f756c642068617665206d6f7265207468616e20353030206574680000006000830152602082019050919050565b6000610f9e601483611296565b91507f43616c6c6572206d757374206265206f776e65720000000000000000000000006000830152602082019050919050565b6000606083016000830151610fe9600086018261107f565b50602083015184820360208601526110018282610edf565b9150506040830151848203604086015261101b8282610edf565b9150508091505092915050565b6000606083016000830151611040600086018261107f565b50602083015184820360208601526110588282610edf565b915050604083015184820360408601526110728282610edf565b9150508091505092915050565b611088816112bc565b82525050565b611097816112bc565b82525050565b60006110a98284610eae565b915081905092915050565b600060208201905081810360008301526110ce8184610df1565b905092915050565b60006020820190506110eb6000830184610e66565b92915050565b6000602082019050818103600083015261110a81610f51565b9050919050565b6000602082019050818103600083015261112a81610f91565b9050919050565b6000602082019050818103600083015261114b8184610fd1565b905092915050565b6000606082019050611168600083018661108e565b818103602083015261117a8185610e75565b9050818103604083015261118e8184610e75565b9050949350505050565b60006060820190506111ad600083018661108e565b81810360208301526111bf8185610f18565b905081810360408301526111d38184610f18565b9050949350505050565b6000604051905081810181811067ffffffffffffffff8211171561120057600080fd5b8060405250919050565b600067ffffffffffffffff82111561122157600080fd5b601f19601f8301169050602081019050919050565b6000819050602082019050919050565b600081519050919050565b600081519050919050565b600081519050919050565b6000602082019050919050565b600082825260208201905092915050565b600082825260208201905092915050565b600082825260208201905092915050565b600081905092915050565b6000819050919050565b6000819050919050565b82818337600083830152505050565b60005b838110156112f35780820151818401526020810190506112d8565b83811115611302576000848401525b50505050565b6000601f19601f8301169050919050565b611322816112b2565b811461132d57600080fd5b50565b611339816112bc565b811461134457600080fd5b5056fea365627a7a72315820cfcb78cbecfffbf64a965b5037dfe8f711f1b813561797997e2689f7ccd95bbb6c6578706572696d656e74616cf564736f6c63430005100040",
  "source": "// SPDX-License-Identifier: MIT\npragma solidity >=0.4.22 <0.9.0;\npragma experimental ABIEncoderV2;\n\ncontract StarterContract{\n\n    address owner;\n\n    struct Person{\n        uint age;\n        string name;\n        string contact_address;\n    }\n\n    bytes32[] public hashPerson;\n\n    Person[] Creators;\n\n    mapping(bytes32 => Person) public personsHash;\n\n    mapping(string => Person) namePerson;\n\n    constructor() public{\n        owner = msg.sender;\n    }\n\n    modifier onlyOwner{\n        require( msg.sender == owner,\"Caller must be owner\");\n        _;\n    }\n\n    modifier checkBalance{\n        require( address(msg.sender).balance >= 0.005 ether,\"Should have more than 500 eth\" );\n        _;\n    }\n\n    function addCreator(uint _age, string memory _name, string memory _contactAddress) public{\n        Person memory person;\n\n        person.age = _age;\n        person.name = _name;\n        person.contact_address = _contactAddress;\n\n        Creators.push(person);\n\n        bytes32 hash = getHash(_age,_name,_contactAddress);\n        hashPerson.push(hash);\n        personsHash[hash] = person;\n\n        namePerson[_name] = person;\n    }\n\n    function getHash(uint _age, string memory _name, string memory _contactAddress) internal pure returns(bytes32) {\n        return keccak256(abi.encode(_age, _name, _contactAddress));\n    }\n\n    function getCretors() public view returns(Person[] memory){\n        return Creators;\n    }\n\n    function removePerson(uint index) public onlyOwner checkBalance{\n        for(uint i = index; i < Creators.length -1; i++){\n            Creators[i] = Creators[i+1];\n        }\n        Creators.pop();\n    }\n\n    function getPerson(string memory _name) public view onlyOwner checkBalance returns(Person memory){\n       return namePerson[_name];\n    }\n\n\n}",
  "sourcePath": "/home/khadgachy07/Desktop/Creator/creator/contracts/StarterContract.sol",
  "compiler": {
    "name": "solc",
    "version": "0.5.16+commit.9c3226ce.Emscripten.clang"
  },
  "schemaVersion": "3.4.9",
  "updatedAt": "2022-08-18T13:12:17.920Z",
  "networkType": "ethereum",
  "devdoc": {
    "methods": {}
  },
  "userdoc": {
    "methods": {}
  }
}