{
  "contractName": "StarterContract",
  "abi": [
    {
      "inputs": [],
      "stateMutability": "nonpayable",
      "type": "constructor"
    },
    {
      "inputs": [
        {
          "internalType": "uint256",
          "name": "",
          "type": "uint256"
        }
      ],
      "name": "Creators",
      "outputs": [
        {
          "internalType": "uint256",
          "name": "age",
          "type": "uint256"
        },
        {
          "internalType": "string",
          "name": "name",
          "type": "string"
        },
        {
          "internalType": "string",
          "name": "contact_address",
          "type": "string"
        }
      ],
      "stateMutability": "view",
      "type": "function",
      "constant": true
    },
    {
      "inputs": [
        {
          "internalType": "uint256",
          "name": "",
          "type": "uint256"
        }
      ],
      "name": "hashPerson",
      "outputs": [
        {
          "internalType": "bytes32",
          "name": "",
          "type": "bytes32"
        }
      ],
      "stateMutability": "view",
      "type": "function",
      "constant": true
    },
    {
      "inputs": [
        {
          "internalType": "bytes32",
          "name": "",
          "type": "bytes32"
        }
      ],
      "name": "personsHash",
      "outputs": [
        {
          "internalType": "uint256",
          "name": "age",
          "type": "uint256"
        },
        {
          "internalType": "string",
          "name": "name",
          "type": "string"
        },
        {
          "internalType": "string",
          "name": "contact_address",
          "type": "string"
        }
      ],
      "stateMutability": "view",
      "type": "function",
      "constant": true
    },
    {
      "inputs": [
        {
          "internalType": "uint256",
          "name": "_age",
          "type": "uint256"
        },
        {
          "internalType": "string",
          "name": "_name",
          "type": "string"
        },
        {
          "internalType": "string",
          "name": "_contactAddress",
          "type": "string"
        }
      ],
      "name": "addCreator",
      "outputs": [],
      "stateMutability": "nonpayable",
      "type": "function"
    },
    {
      "inputs": [],
      "name": "getCreators",
      "outputs": [
        {
          "components": [
            {
              "internalType": "uint256",
              "name": "age",
              "type": "uint256"
            },
            {
              "internalType": "string",
              "name": "name",
              "type": "string"
            },
            {
              "internalType": "string",
              "name": "contact_address",
              "type": "string"
            }
          ],
          "internalType": "struct StarterContract.Person[]",
          "name": "",
          "type": "tuple[]"
        }
      ],
      "stateMutability": "view",
      "type": "function",
      "constant": true
    },
    {
      "inputs": [
        {
          "internalType": "uint256",
          "name": "index",
          "type": "uint256"
        }
      ],
      "name": "removePerson",
      "outputs": [],
      "stateMutability": "nonpayable",
      "type": "function"
    },
    {
      "inputs": [
        {
          "internalType": "string",
          "name": "_name",
          "type": "string"
        }
      ],
      "name": "getPerson",
      "outputs": [
        {
          "components": [
            {
              "internalType": "uint256",
              "name": "age",
              "type": "uint256"
            },
            {
              "internalType": "string",
              "name": "name",
              "type": "string"
            },
            {
              "internalType": "string",
              "name": "contact_address",
              "type": "string"
            }
          ],
          "internalType": "struct StarterContract.Person",
          "name": "",
          "type": "tuple"
        }
      ],
      "stateMutability": "view",
      "type": "function",
      "constant": true
    }
  ],
  "bytecode": "0x608060405234801561001057600080fd5b50336000806101000a81548173ffffffffffffffffffffffffffffffffffffffff021916908373ffffffffffffffffffffffffffffffffffffffff160217905550611963806100606000396000f3fe608060405234801561001057600080fd5b506004361061007d5760003560e01c8063ac193c6e1161005b578063ac193c6e14610100578063e2c93c2914610132578063e6adc1ee1461014e578063e907247c1461016c5761007d565b806343817d72146100825780635ff564101461009e5780638055ccaa146100ce575b600080fd5b61009c60048036038101906100979190610e7b565b61019c565b005b6100b860048036038101906100b39190610f06565b610308565b6040516100c59190610f4c565b60405180910390f35b6100e860048036038101906100e39190610f06565b61032c565b6040516100f793929190610ff5565b60405180910390f35b61011a60048036038101906101159190611066565b610476565b60405161012993929190610ff5565b60405180910390f35b61014c60048036038101906101479190610f06565b6105b0565b005b610156610855565b6040516101639190611205565b60405180910390f35b61018660048036038101906101819190611227565b6109e2565b60405161019391906112c7565b60405180910390f35b6101a4610c6d565b83816000018181525050828160200181905250818160400181905250600281908060018154018082558091505060019003906000526020600020906003020160009091909190915060008201518160000155602082015181600101908161020b91906114f5565b50604082015181600201908161022191906114f5565b5050506000610231858585610c37565b90506001819080600181540180825580915050600190039060005260206000200160009091909190915055816003600083815260200190815260200160002060008201518160000155602082015181600101908161028f91906114f5565b5060408201518160020190816102a591906114f5565b50905050816004856040516102ba9190611603565b90815260200160405180910390206000820151816000015560208201518160010190816102e791906114f5565b5060408201518160020190816102fd91906114f5565b509050505050505050565b6001818154811061031857600080fd5b906000526020600020016000915090505481565b6002818154811061033c57600080fd5b906000526020600020906003020160009150905080600001549080600101805461036590611318565b80601f016020809104026020016040519081016040528092919081815260200182805461039190611318565b80156103de5780601f106103b3576101008083540402835291602001916103de565b820191906000526020600020905b8154815290600101906020018083116103c157829003601f168201915b5050505050908060020180546103f390611318565b80601f016020809104026020016040519081016040528092919081815260200182805461041f90611318565b801561046c5780601f106104415761010080835404028352916020019161046c565b820191906000526020600020905b81548152906001019060200180831161044f57829003601f168201915b5050505050905083565b600360205280600052604060002060009150905080600001549080600101805461049f90611318565b80601f01602080910402602001604051908101604052809291908181526020018280546104cb90611318565b80156105185780601f106104ed57610100808354040283529160200191610518565b820191906000526020600020905b8154815290600101906020018083116104fb57829003601f168201915b50505050509080600201805461052d90611318565b80601f016020809104026020016040519081016040528092919081815260200182805461055990611318565b80156105a65780601f1061057b576101008083540402835291602001916105a6565b820191906000526020600020905b81548152906001019060200180831161058957829003601f168201915b5050505050905083565b60008054906101000a900473ffffffffffffffffffffffffffffffffffffffff1673ffffffffffffffffffffffffffffffffffffffff163373ffffffffffffffffffffffffffffffffffffffff161461063e576040517f08c379a000000000000000000000000000000000000000000000000000000000815260040161063590611666565b60405180910390fd5b6611c37937e080003373ffffffffffffffffffffffffffffffffffffffff1631101561069f576040517f08c379a0000000000000000000000000000000000000000000000000000000008152600401610696906116d2565b60405180910390fd5b60008190505b60016002805490506106b79190611721565b8110156107585760026001826106cd9190611755565b815481106106de576106dd611789565b5b906000526020600020906003020160028281548110610700576106ff611789565b5b9060005260206000209060030201600082015481600001556001820181600101908161072c91906117ce565b506002820181600201908161074191906117ce565b509050508080610750906118b6565b9150506106a5565b50600280548061076b5761076a6118fe565b5b60019003818190600052602060002090600302016000808201600090556001820160006107989190610c8e565b6002820160006107a89190610c8e565b5050905560008190505b600180805490506107c39190611721565b81101561082957600180826107d89190611755565b815481106107e9576107e8611789565b5b90600052602060002001546001828154811061080857610807611789565b5b90600052602060002001819055508080610821906118b6565b9150506107b2565b50600180548061083c5761083b6118fe565b5b6001900381819060005260206000200160009055905550565b60606002805480602002602001604051908101604052809291908181526020016000905b828210156109d95783829060005260206000209060030201604051806060016040529081600082015481526020016001820180546108b690611318565b80601f01602080910402602001604051908101604052809291908181526020018280546108e290611318565b801561092f5780601f106109045761010080835404028352916020019161092f565b820191906000526020600020905b81548152906001019060200180831161091257829003601f168201915b5050505050815260200160028201805461094890611318565b80601f016020809104026020016040519081016040528092919081815260200182805461097490611318565b80156109c15780601f10610996576101008083540402835291602001916109c1565b820191906000526020600020905b8154815290600101906020018083116109a457829003601f168201915b50505050508152505081526020019060010190610879565b50505050905090565b6109ea610c6d565b60008054906101000a900473ffffffffffffffffffffffffffffffffffffffff1673ffffffffffffffffffffffffffffffffffffffff163373ffffffffffffffffffffffffffffffffffffffff1614610a78576040517f08c379a0000000000000000000000000000000000000000000000000000000008152600401610a6f90611666565b60405180910390fd5b6611c37937e080003373ffffffffffffffffffffffffffffffffffffffff16311015610ad9576040517f08c379a0000000000000000000000000000000000000000000000000000000008152600401610ad0906116d2565b60405180910390fd5b600482604051610ae99190611603565b908152602001604051809103902060405180606001604052908160008201548152602001600182018054610b1c90611318565b80601f0160208091040260200160405190810160405280929190818152602001828054610b4890611318565b8015610b955780601f10610b6a57610100808354040283529160200191610b95565b820191906000526020600020905b815481529060010190602001808311610b7857829003601f168201915b50505050508152602001600282018054610bae90611318565b80601f0160208091040260200160405190810160405280929190818152602001828054610bda90611318565b8015610c275780601f10610bfc57610100808354040283529160200191610c27565b820191906000526020600020905b815481529060010190602001808311610c0a57829003601f168201915b5050505050815250509050919050565b6000838383604051602001610c4e93929190610ff5565b6040516020818303038152906040528051906020012090509392505050565b60405180606001604052806000815260200160608152602001606081525090565b508054610c9a90611318565b6000825580601f10610cac5750610ccb565b601f016020900490600052602060002090810190610cca9190610cce565b5b50565b5b80821115610ce7576000816000905550600101610ccf565b5090565b6000604051905090565b600080fd5b600080fd5b6000819050919050565b610d1281610cff565b8114610d1d57600080fd5b50565b600081359050610d2f81610d09565b92915050565b600080fd5b600080fd5b6000601f19601f8301169050919050565b7f4e487b7100000000000000000000000000000000000000000000000000000000600052604160045260246000fd5b610d8882610d3f565b810181811067ffffffffffffffff82111715610da757610da6610d50565b5b80604052505050565b6000610dba610ceb565b9050610dc68282610d7f565b919050565b600067ffffffffffffffff821115610de657610de5610d50565b5b610def82610d3f565b9050602081019050919050565b82818337600083830152505050565b6000610e1e610e1984610dcb565b610db0565b905082815260208101848484011115610e3a57610e39610d3a565b5b610e45848285610dfc565b509392505050565b600082601f830112610e6257610e61610d35565b5b8135610e72848260208601610e0b565b91505092915050565b600080600060608486031215610e9457610e93610cf5565b5b6000610ea286828701610d20565b935050602084013567ffffffffffffffff811115610ec357610ec2610cfa565b5b610ecf86828701610e4d565b925050604084013567ffffffffffffffff811115610ef057610eef610cfa565b5b610efc86828701610e4d565b9150509250925092565b600060208284031215610f1c57610f1b610cf5565b5b6000610f2a84828501610d20565b91505092915050565b6000819050919050565b610f4681610f33565b82525050565b6000602082019050610f616000830184610f3d565b92915050565b610f7081610cff565b82525050565b600081519050919050565b600082825260208201905092915050565b60005b83811015610fb0578082015181840152602081019050610f95565b60008484015250505050565b6000610fc782610f76565b610fd18185610f81565b9350610fe1818560208601610f92565b610fea81610d3f565b840191505092915050565b600060608201905061100a6000830186610f67565b818103602083015261101c8185610fbc565b905081810360408301526110308184610fbc565b9050949350505050565b61104381610f33565b811461104e57600080fd5b50565b6000813590506110608161103a565b92915050565b60006020828403121561107c5761107b610cf5565b5b600061108a84828501611051565b91505092915050565b600081519050919050565b600082825260208201905092915050565b6000819050602082019050919050565b6110c881610cff565b82525050565b600082825260208201905092915050565b60006110ea82610f76565b6110f481856110ce565b9350611104818560208601610f92565b61110d81610d3f565b840191505092915050565b600060608301600083015161113060008601826110bf565b506020830151848203602086015261114882826110df565b9150506040830151848203604086015261116282826110df565b9150508091505092915050565b600061117b8383611118565b905092915050565b6000602082019050919050565b600061119b82611093565b6111a5818561109e565b9350836020820285016111b7856110af565b8060005b858110156111f357848403895281516111d4858261116f565b94506111df83611183565b925060208a019950506001810190506111bb565b50829750879550505050505092915050565b6000602082019050818103600083015261121f8184611190565b905092915050565b60006020828403121561123d5761123c610cf5565b5b600082013567ffffffffffffffff81111561125b5761125a610cfa565b5b61126784828501610e4d565b91505092915050565b600060608301600083015161128860008601826110bf565b50602083015184820360208601526112a082826110df565b915050604083015184820360408601526112ba82826110df565b9150508091505092915050565b600060208201905081810360008301526112e18184611270565b905092915050565b7f4e487b7100000000000000000000000000000000000000000000000000000000600052602260045260246000fd5b6000600282049050600182168061133057607f821691505b602082108103611343576113426112e9565b5b50919050565b60008190508160005260206000209050919050565b60006020601f8301049050919050565b600082821b905092915050565b6000600883026113ab7fffffffffffffffffffffffffffffffffffffffffffffffffffffffffffffffff8261136e565b6113b5868361136e565b95508019841693508086168417925050509392505050565b6000819050919050565b60006113f26113ed6113e884610cff565b6113cd565b610cff565b9050919050565b6000819050919050565b61140c836113d7565b611420611418826113f9565b84845461137b565b825550505050565b600090565b611435611428565b611440818484611403565b505050565b5b818110156114645761145960008261142d565b600181019050611446565b5050565b601f8211156114a95761147a81611349565b6114838461135e565b81016020851015611492578190505b6114a661149e8561135e565b830182611445565b50505b505050565b600082821c905092915050565b60006114cc600019846008026114ae565b1980831691505092915050565b60006114e583836114bb565b9150826002028217905092915050565b6114fe82610f76565b67ffffffffffffffff81111561151757611516610d50565b5b6115218254611318565b61152c828285611468565b600060209050601f83116001811461155f576000841561154d578287015190505b61155785826114d9565b8655506115bf565b601f19841661156d86611349565b60005b8281101561159557848901518255600182019150602085019450602081019050611570565b868310156115b257848901516115ae601f8916826114bb565b8355505b6001600288020188555050505b505050505050565b600081905092915050565b60006115dd82610f76565b6115e781856115c7565b93506115f7818560208601610f92565b80840191505092915050565b600061160f82846115d2565b915081905092915050565b7f43616c6c6572206d757374206265206f776e6572000000000000000000000000600082015250565b6000611650601483610f81565b915061165b8261161a565b602082019050919050565b6000602082019050818103600083015261167f81611643565b9050919050565b7f53686f756c642068617665206d6f7265207468616e2035303020657468000000600082015250565b60006116bc601d83610f81565b91506116c782611686565b602082019050919050565b600060208201905081810360008301526116eb816116af565b9050919050565b7f4e487b7100000000000000000000000000000000000000000000000000000000600052601160045260246000fd5b600061172c82610cff565b915061173783610cff565b925082820390508181111561174f5761174e6116f2565b5b92915050565b600061176082610cff565b915061176b83610cff565b9250828201905080821115611783576117826116f2565b5b92915050565b7f4e487b7100000000000000000000000000000000000000000000000000000000600052603260045260246000fd5b6000815490506117c781611318565b9050919050565b8181036117dc5750506118b4565b6117e5826117b8565b67ffffffffffffffff8111156117fe576117fd610d50565b5b6118088254611318565b611813828285611468565b6000601f8311600181146118425760008415611830578287015490505b61183a85826114d9565b8655506118ad565b601f19841661185087611349565b965061185b86611349565b60005b828110156118835784890154825560018201915060018501945060208101905061185e565b868310156118a0578489015461189c601f8916826114bb565b8355505b6001600288020188555050505b5050505050505b565b60006118c182610cff565b91507fffffffffffffffffffffffffffffffffffffffffffffffffffffffffffffffff82036118f3576118f26116f2565b5b600182019050919050565b7f4e487b7100000000000000000000000000000000000000000000000000000000600052603160045260246000fdfea2646970667358221220d8c4ead96d8658545c5ad6f20fa4ff05230ff63bc9d6ce7e80c4e8507dafec5164736f6c63430008100033",
  "immutableReferences": {},
  "source": "// SPDX-License-Identifier: MIT\n\npragma solidity ^0.8.0;\n\ncontract StarterContract{\n\n    address owner;\n\n    struct Person{\n        uint age;\n        string name;\n        string contact_address;\n    }\n\n    bytes32[] public hashPerson;\n\n    Person[] public Creators;\n\n    mapping(bytes32 => Person) public personsHash;\n\n    mapping(string => Person) namePerson;\n\n    constructor (){\n        owner = msg.sender;\n    }\n\n    modifier onlyOwner{\n        require( msg.sender == owner,\"Caller must be owner\");\n        _;\n    }\n\n    modifier checkBalance{\n        require( address(msg.sender).balance >= 0.005 ether,\"Should have more than 500 eth\" );\n        _;\n    }\n\n    function addCreator(uint _age, string memory _name, string memory _contactAddress) public{\n        Person memory person;\n\n        person.age = _age;\n        person.name = _name;\n        person.contact_address = _contactAddress;\n\n        Creators.push(person);\n\n        bytes32 hash = getHash(_age,_name,_contactAddress);\n        hashPerson.push(hash);\n        personsHash[hash] = person;\n\n        namePerson[_name] = person;\n    }\n\n    function getHash(uint _age, string memory _name, string memory _contactAddress) internal pure returns(bytes32) {\n        return keccak256(abi.encode(_age, _name, _contactAddress));\n    }\n\n    function getCreators() public view returns(Person[] memory){\n        return Creators;\n    }\n\n    function removePerson(uint index) public onlyOwner checkBalance{\n        for(uint i = index; i < Creators.length -1; i++){\n            Creators[i] = Creators[i+1];\n        }\n        Creators.pop();\n        \n        for (uint i = index; i < hashPerson.length - 1; i++){\n            hashPerson[i] = hashPerson[i+1];\n        }\n        hashPerson.pop();\n    }\n\n    function getPerson(string memory _name) public view onlyOwner checkBalance returns(Person memory){\n       return namePerson[_name];\n    }\n\n\n}",
  "sourcePath": "/home/khadgachy07/Desktop/Creators/contracts/StarterContract.sol",
  "compiler": {
    "name": "solc",
    "version": "0.8.16+commit.07a7930e.Emscripten.clang"
  },
  "schemaVersion": "3.4.9",
  "updatedAt": "2022-11-11T15:45:13.517Z",
  "networkType": "ethereum",
  "devdoc": {
    "kind": "dev",
    "methods": {},
    "version": 1
  },
  "userdoc": {
    "kind": "user",
    "methods": {},
    "version": 1
  }
}