{
  "contractName": "StarterContract",
  "abi": [
    {
      "inputs": [],
      "payable": false,
      "stateMutability": "nonpayable",
      "type": "constructor"
    },
    {
      "constant": true,
      "inputs": [
        {
          "internalType": "uint256",
          "name": "",
          "type": "uint256"
        }
      ],
      "name": "hashPerson",
      "outputs": [
        {
          "internalType": "bytes32",
          "name": "",
          "type": "bytes32"
        }
      ],
      "payable": false,
      "stateMutability": "view",
      "type": "function"
    },
    {
      "constant": true,
      "inputs": [
        {
          "internalType": "bytes32",
          "name": "",
          "type": "bytes32"
        }
      ],
      "name": "personsHash",
      "outputs": [
        {
          "internalType": "uint256",
          "name": "age",
          "type": "uint256"
        },
        {
          "internalType": "string",
          "name": "name",
          "type": "string"
        },
        {
          "internalType": "string",
          "name": "contact_address",
          "type": "string"
        }
      ],
      "payable": false,
      "stateMutability": "view",
      "type": "function"
    },
    {
      "constant": false,
      "inputs": [
        {
          "internalType": "uint256",
          "name": "_age",
          "type": "uint256"
        },
        {
          "internalType": "string",
          "name": "_name",
          "type": "string"
        },
        {
          "internalType": "string",
          "name": "_contactAddress",
          "type": "string"
        }
      ],
      "name": "addCreator",
      "outputs": [],
      "payable": false,
      "stateMutability": "nonpayable",
      "type": "function"
    },
    {
      "constant": true,
      "inputs": [],
      "name": "getCretors",
      "outputs": [
        {
          "components": [
            {
              "internalType": "uint256",
              "name": "age",
              "type": "uint256"
            },
            {
              "internalType": "string",
              "name": "name",
              "type": "string"
            },
            {
              "internalType": "string",
              "name": "contact_address",
              "type": "string"
            }
          ],
          "internalType": "struct StarterContract.Person[]",
          "name": "",
          "type": "tuple[]"
        }
      ],
      "payable": false,
      "stateMutability": "view",
      "type": "function"
    },
    {
      "constant": false,
      "inputs": [
        {
          "internalType": "uint256",
          "name": "index",
          "type": "uint256"
        }
      ],
      "name": "removePerson",
      "outputs": [],
      "payable": false,
      "stateMutability": "nonpayable",
      "type": "function"
    },
    {
      "constant": true,
      "inputs": [
        {
          "internalType": "string",
          "name": "_name",
          "type": "string"
        }
      ],
      "name": "getPerson",
      "outputs": [
        {
          "components": [
            {
              "internalType": "uint256",
              "name": "age",
              "type": "uint256"
            },
            {
              "internalType": "string",
              "name": "name",
              "type": "string"
            },
            {
              "internalType": "string",
              "name": "contact_address",
              "type": "string"
            }
          ],
          "internalType": "struct StarterContract.Person",
          "name": "",
          "type": "tuple"
        }
      ],
      "payable": false,
      "stateMutability": "view",
      "type": "function"
    }
  ],
  "bytecode": "0x608060405234801561001057600080fd5b50336000806101000a81548173ffffffffffffffffffffffffffffffffffffffff021916908373ffffffffffffffffffffffffffffffffffffffff160217905550611403806100606000396000f3fe608060405234801561001057600080fd5b50600436106100625760003560e01c806343817d72146100675780635b10c588146100835780635ff56410146100a1578063ac193c6e146100d1578063e2c93c2914610103578063e907247c1461011f575b600080fd5b610081600480360361007c9190810190610dd7565b61014f565b005b61008b6102eb565b604051610098919061112d565b60405180910390f35b6100bb60048036036100b69190810190610dae565b610498565b6040516100c8919061114f565b60405180910390f35b6100eb60048036036100e69190810190610d44565b6104b9565b6040516100fa93929190611211565b60405180910390f35b61011d60048036036101189190810190610dae565b610613565b005b61013960048036036101349190810190610d6d565b610885565b60405161014691906111aa565b60405180910390f35b610157610b31565b83816000018181525050828160200181905250818160400181905250600281908060018154018082558091505090600182039060005260206000209060030201600090919290919091506000820151816000015560208201518160010190805190602001906101c7929190610b52565b5060408201518160020190805190602001906101e4929190610b52565b5050505060006101f5858585610afb565b90506001819080600181540180825580915050906001820390600052602060002001600090919290919091505550816003600083815260200190815260200160002060008201518160000155602082015181600101908051906020019061025d929190610b52565b50604082015181600201908051906020019061027a929190610b52565b509050508160048560405161028f9190611116565b90815260200160405180910390206000820151816000015560208201518160010190805190602001906102c3929190610b52565b5060408201518160020190805190602001906102e0929190610b52565b509050505050505050565b60606002805480602002602001604051908101604052809291908181526020016000905b8282101561048f578382906000526020600020906003020160405180606001604052908160008201548152602001600182018054600181600116156101000203166002900480601f0160208091040260200160405190810160405280929190818152602001828054600181600116156101000203166002900480156103d55780601f106103aa576101008083540402835291602001916103d5565b820191906000526020600020905b8154815290600101906020018083116103b857829003601f168201915b50505050508152602001600282018054600181600116156101000203166002900480601f0160208091040260200160405190810160405280929190818152602001828054600181600116156101000203166002900480156104775780601f1061044c57610100808354040283529160200191610477565b820191906000526020600020905b81548152906001019060200180831161045a57829003601f168201915b5050505050815250508152602001906001019061030f565b50505050905090565b600181815481106104a557fe5b906000526020600020016000915090505481565b6003602052806000526040600020600091509050806000015490806001018054600181600116156101000203166002900480601f01602080910402602001604051908101604052809291908181526020018280546001816001161561010002031660029004801561056b5780601f106105405761010080835404028352916020019161056b565b820191906000526020600020905b81548152906001019060200180831161054e57829003601f168201915b505050505090806002018054600181600116156101000203166002900480601f0160208091040260200160405190810160405280929190818152602001828054600181600116156101000203166002900480156106095780601f106105de57610100808354040283529160200191610609565b820191906000526020600020905b8154815290600101906020018083116105ec57829003601f168201915b5050505050905083565b6000809054906101000a900473ffffffffffffffffffffffffffffffffffffffff1673ffffffffffffffffffffffffffffffffffffffff163373ffffffffffffffffffffffffffffffffffffffff16146106a2576040517f08c379a00000000000000000000000000000000000000000000000000000000081526004016106999061118a565b60405180910390fd5b6611c37937e080003373ffffffffffffffffffffffffffffffffffffffff16311015610703576040517f08c379a00000000000000000000000000000000000000000000000000000000081526004016106fa9061116a565b60405180910390fd5b60008190505b6001600280549050038110156107bc576002600182018154811061072957fe5b90600052602060002090600302016002828154811061074457fe5b90600052602060002090600302016000820154816000015560018201816001019080546001816001161561010002031660029004610783929190610bd2565b50600282018160020190805460018160011615610100020316600290046107ab929190610bd2565b509050508080600101915050610709565b5060028054806107c857fe5b60019003818190600052602060002090600302016000808201600090556001820160006107f59190610c59565b6002820160006108059190610c59565b5050905560008190505b60018080549050038110156108605760018082018154811061082d57fe5b90600052602060002001546001828154811061084557fe5b9060005260206000200181905550808060010191505061080f565b50600180548061086c57fe5b6001900381819060005260206000200160009055905550565b61088d610b31565b6000809054906101000a900473ffffffffffffffffffffffffffffffffffffffff1673ffffffffffffffffffffffffffffffffffffffff163373ffffffffffffffffffffffffffffffffffffffff161461091c576040517f08c379a00000000000000000000000000000000000000000000000000000000081526004016109139061118a565b60405180910390fd5b6611c37937e080003373ffffffffffffffffffffffffffffffffffffffff1631101561097d576040517f08c379a00000000000000000000000000000000000000000000000000000000081526004016109749061116a565b60405180910390fd5b60048260405161098d9190611116565b908152602001604051809103902060405180606001604052908160008201548152602001600182018054600181600116156101000203166002900480601f016020809104026020016040519081016040528092919081815260200182805460018160011615610100020316600290048015610a495780601f10610a1e57610100808354040283529160200191610a49565b820191906000526020600020905b815481529060010190602001808311610a2c57829003601f168201915b50505050508152602001600282018054600181600116156101000203166002900480601f016020809104026020016040519081016040528092919081815260200182805460018160011615610100020316600290048015610aeb5780601f10610ac057610100808354040283529160200191610aeb565b820191906000526020600020905b815481529060010190602001808311610ace57829003601f168201915b5050505050815250509050919050565b6000838383604051602001610b12939291906111cc565b6040516020818303038152906040528051906020012090509392505050565b60405180606001604052806000815260200160608152602001606081525090565b828054600181600116156101000203166002900490600052602060002090601f016020900481019282601f10610b9357805160ff1916838001178555610bc1565b82800160010185558215610bc1579182015b82811115610bc0578251825591602001919060010190610ba5565b5b509050610bce9190610ca1565b5090565b828054600181600116156101000203166002900490600052602060002090601f016020900481019282601f10610c0b5780548555610c48565b82800160010185558215610c4857600052602060002091601f016020900482015b82811115610c47578254825591600101919060010190610c2c565b5b509050610c559190610ca1565b5090565b50805460018160011615610100020316600290046000825580601f10610c7f5750610c9e565b601f016020900490600052602060002090810190610c9d9190610ca1565b5b50565b610cc391905b80821115610cbf576000816000905550600101610ca7565b5090565b90565b600081359050610cd581611392565b92915050565b600082601f830112610cec57600080fd5b8135610cff610cfa82611283565b611256565b91508082526020830160208301858383011115610d1b57600080fd5b610d2683828461133f565b50505092915050565b600081359050610d3e816113a9565b92915050565b600060208284031215610d5657600080fd5b6000610d6484828501610cc6565b91505092915050565b600060208284031215610d7f57600080fd5b600082013567ffffffffffffffff811115610d9957600080fd5b610da584828501610cdb565b91505092915050565b600060208284031215610dc057600080fd5b6000610dce84828501610d2f565b91505092915050565b600080600060608486031215610dec57600080fd5b6000610dfa86828701610d2f565b935050602084013567ffffffffffffffff811115610e1757600080fd5b610e2386828701610cdb565b925050604084013567ffffffffffffffff811115610e4057600080fd5b610e4c86828701610cdb565b9150509250925092565b6000610e6283836110a1565b905092915050565b6000610e75826112bf565b610e7f81856112ed565b935083602082028501610e91856112af565b8060005b85811015610ecd5784840389528151610eae8582610e56565b9450610eb9836112e0565b925060208a01995050600181019050610e95565b50829750879550505050505092915050565b610ee88161132b565b82525050565b6000610ef9826112d5565b610f03818561130f565b9350610f1381856020860161134e565b610f1c81611381565b840191505092915050565b6000610f32826112d5565b610f3c8185611320565b9350610f4c81856020860161134e565b80840191505092915050565b6000610f63826112ca565b610f6d81856112fe565b9350610f7d81856020860161134e565b610f8681611381565b840191505092915050565b6000610f9c826112ca565b610fa6818561130f565b9350610fb681856020860161134e565b610fbf81611381565b840191505092915050565b6000610fd7601d8361130f565b91507f53686f756c642068617665206d6f7265207468616e20353030206574680000006000830152602082019050919050565b600061101760148361130f565b91507f43616c6c6572206d757374206265206f776e65720000000000000000000000006000830152602082019050919050565b600060608301600083015161106260008601826110f8565b506020830151848203602086015261107a8282610f58565b915050604083015184820360408601526110948282610f58565b9150508091505092915050565b60006060830160008301516110b960008601826110f8565b50602083015184820360208601526110d18282610f58565b915050604083015184820360408601526110eb8282610f58565b9150508091505092915050565b61110181611335565b82525050565b61111081611335565b82525050565b60006111228284610f27565b915081905092915050565b600060208201905081810360008301526111478184610e6a565b905092915050565b60006020820190506111646000830184610edf565b92915050565b6000602082019050818103600083015261118381610fca565b9050919050565b600060208201905081810360008301526111a38161100a565b9050919050565b600060208201905081810360008301526111c4818461104a565b905092915050565b60006060820190506111e16000830186611107565b81810360208301526111f38185610eee565b905081810360408301526112078184610eee565b9050949350505050565b60006060820190506112266000830186611107565b81810360208301526112388185610f91565b9050818103604083015261124c8184610f91565b9050949350505050565b6000604051905081810181811067ffffffffffffffff8211171561127957600080fd5b8060405250919050565b600067ffffffffffffffff82111561129a57600080fd5b601f19601f8301169050602081019050919050565b6000819050602082019050919050565b600081519050919050565b600081519050919050565b600081519050919050565b6000602082019050919050565b600082825260208201905092915050565b600082825260208201905092915050565b600082825260208201905092915050565b600081905092915050565b6000819050919050565b6000819050919050565b82818337600083830152505050565b60005b8381101561136c578082015181840152602081019050611351565b8381111561137b576000848401525b50505050565b6000601f19601f8301169050919050565b61139b8161132b565b81146113a657600080fd5b50565b6113b281611335565b81146113bd57600080fd5b5056fea365627a7a7231582082da178e4ba4b53b2de65a4d6aa7c3bf7cf26c09d52d15f93df68c07a120ab5e6c6578706572696d656e74616cf564736f6c63430005100040",
  "source": "// SPDX-License-Identifier: MIT\npragma solidity >=0.4.22 <0.9.0;\npragma experimental ABIEncoderV2;\n\ncontract StarterContract{\n\n    address owner;\n\n    struct Person{\n        uint age;\n        string name;\n        string contact_address;\n    }\n\n    bytes32[] public hashPerson;\n\n    Person[] Creators;\n\n    mapping(bytes32 => Person) public personsHash;\n\n    mapping(string => Person) namePerson;\n\n    constructor() public{\n        owner = msg.sender;\n    }\n\n    modifier onlyOwner{\n        require( msg.sender == owner,\"Caller must be owner\");\n        _;\n    }\n\n    modifier checkBalance{\n        require( address(msg.sender).balance >= 0.005 ether,\"Should have more than 500 eth\" );\n        _;\n    }\n\n    function addCreator(uint _age, string memory _name, string memory _contactAddress) public{\n        Person memory person;\n\n        person.age = _age;\n        person.name = _name;\n        person.contact_address = _contactAddress;\n\n        Creators.push(person);\n\n        bytes32 hash = getHash(_age,_name,_contactAddress);\n        hashPerson.push(hash);\n        personsHash[hash] = person;\n\n        namePerson[_name] = person;\n    }\n\n    function getHash(uint _age, string memory _name, string memory _contactAddress) internal pure returns(bytes32) {\n        return keccak256(abi.encode(_age, _name, _contactAddress));\n    }\n\n    function getCretors() public view returns(Person[] memory){\n        return Creators;\n    }\n\n    function removePerson(uint index) public onlyOwner checkBalance{\n        for(uint i = index; i < Creators.length -1; i++){\n            Creators[i] = Creators[i+1];\n        }\n        Creators.pop();\n        \n        for (uint i = index; i < hashPerson.length - 1; i++){\n            hashPerson[i] = hashPerson[i+1];\n        }\n        hashPerson.pop();\n    }\n\n    function getPerson(string memory _name) public view onlyOwner checkBalance returns(Person memory){\n       return namePerson[_name];\n    }\n\n\n}",
  "sourcePath": "/home/khadgachy07/Desktop/Creator/creator/contracts/StarterContract.sol",
  "compiler": {
    "name": "solc",
    "version": "0.5.16+commit.9c3226ce.Emscripten.clang"
  },
  "schemaVersion": "3.4.9",
  "updatedAt": "2022-08-19T13:44:59.927Z",
  "networkType": "ethereum",
  "devdoc": {
    "methods": {}
  },
  "userdoc": {
    "methods": {}
  }
}