{
  "contractName": "StarterContract",
  "abi": [
    {
      "inputs": [],
      "stateMutability": "nonpayable",
      "type": "constructor"
    },
    {
      "inputs": [
        {
          "internalType": "uint256",
          "name": "",
          "type": "uint256"
        }
      ],
      "name": "hashPerson",
      "outputs": [
        {
          "internalType": "bytes32",
          "name": "",
          "type": "bytes32"
        }
      ],
      "stateMutability": "view",
      "type": "function",
      "constant": true
    },
    {
      "inputs": [
        {
          "internalType": "bytes32",
          "name": "",
          "type": "bytes32"
        }
      ],
      "name": "personsHash",
      "outputs": [
        {
          "internalType": "uint256",
          "name": "age",
          "type": "uint256"
        },
        {
          "internalType": "string",
          "name": "name",
          "type": "string"
        },
        {
          "internalType": "string",
          "name": "contact_address",
          "type": "string"
        }
      ],
      "stateMutability": "view",
      "type": "function",
      "constant": true
    },
    {
      "inputs": [
        {
          "internalType": "uint256",
          "name": "_age",
          "type": "uint256"
        },
        {
          "internalType": "string",
          "name": "_name",
          "type": "string"
        },
        {
          "internalType": "string",
          "name": "_contactAddress",
          "type": "string"
        }
      ],
      "name": "addCreator",
      "outputs": [],
      "stateMutability": "nonpayable",
      "type": "function"
    },
    {
      "inputs": [],
      "name": "getCreators",
      "outputs": [
        {
          "components": [
            {
              "internalType": "uint256",
              "name": "age",
              "type": "uint256"
            },
            {
              "internalType": "string",
              "name": "name",
              "type": "string"
            },
            {
              "internalType": "string",
              "name": "contact_address",
              "type": "string"
            }
          ],
          "internalType": "struct StarterContract.Person[]",
          "name": "",
          "type": "tuple[]"
        }
      ],
      "stateMutability": "view",
      "type": "function",
      "constant": true
    },
    {
      "inputs": [
        {
          "internalType": "uint256",
          "name": "index",
          "type": "uint256"
        }
      ],
      "name": "removePerson",
      "outputs": [],
      "stateMutability": "nonpayable",
      "type": "function"
    },
    {
      "inputs": [
        {
          "internalType": "string",
          "name": "_name",
          "type": "string"
        }
      ],
      "name": "getPerson",
      "outputs": [
        {
          "components": [
            {
              "internalType": "uint256",
              "name": "age",
              "type": "uint256"
            },
            {
              "internalType": "string",
              "name": "name",
              "type": "string"
            },
            {
              "internalType": "string",
              "name": "contact_address",
              "type": "string"
            }
          ],
          "internalType": "struct StarterContract.Person",
          "name": "",
          "type": "tuple"
        }
      ],
      "stateMutability": "view",
      "type": "function",
      "constant": true
    }
  ],
  "bytecode": "0x608060405234801561001057600080fd5b50336000806101000a81548173ffffffffffffffffffffffffffffffffffffffff021916908373ffffffffffffffffffffffffffffffffffffffff1602179055506117cc806100606000396000f3fe608060405234801561001057600080fd5b50600436106100625760003560e01c806343817d72146100675780635ff5641014610083578063ac193c6e146100b3578063e2c93c29146100e5578063e6adc1ee14610101578063e907247c1461011f575b600080fd5b610081600480360381019061007c9190610ce4565b61014f565b005b61009d60048036038101906100989190610d6f565b6102bb565b6040516100aa9190610db5565b60405180910390f35b6100cd60048036038101906100c89190610dfc565b6102df565b6040516100dc93929190610eb7565b60405180910390f35b6100ff60048036038101906100fa9190610d6f565b610419565b005b6101096106be565b604051610116919061106e565b60405180910390f35b61013960048036038101906101349190611090565b61084b565b6040516101469190611130565b60405180910390f35b610157610ad6565b8381600001818152505082816020018190525081816040018190525060028190806001815401808255809150506001900390600052602060002090600302016000909190919091506000820151816000015560208201518160010190816101be919061135e565b5060408201518160020190816101d4919061135e565b50505060006101e4858585610aa0565b905060018190806001815401808255809150506001900390600052602060002001600090919091909150558160036000838152602001908152602001600020600082015181600001556020820151816001019081610242919061135e565b506040820151816002019081610258919061135e565b509050508160048560405161026d919061146c565b908152602001604051809103902060008201518160000155602082015181600101908161029a919061135e565b5060408201518160020190816102b0919061135e565b509050505050505050565b600181815481106102cb57600080fd5b906000526020600020016000915090505481565b600360205280600052604060002060009150905080600001549080600101805461030890611181565b80601f016020809104026020016040519081016040528092919081815260200182805461033490611181565b80156103815780601f1061035657610100808354040283529160200191610381565b820191906000526020600020905b81548152906001019060200180831161036457829003601f168201915b50505050509080600201805461039690611181565b80601f01602080910402602001604051908101604052809291908181526020018280546103c290611181565b801561040f5780601f106103e45761010080835404028352916020019161040f565b820191906000526020600020905b8154815290600101906020018083116103f257829003601f168201915b5050505050905083565b60008054906101000a900473ffffffffffffffffffffffffffffffffffffffff1673ffffffffffffffffffffffffffffffffffffffff163373ffffffffffffffffffffffffffffffffffffffff16146104a7576040517f08c379a000000000000000000000000000000000000000000000000000000000815260040161049e906114cf565b60405180910390fd5b6611c37937e080003373ffffffffffffffffffffffffffffffffffffffff16311015610508576040517f08c379a00000000000000000000000000000000000000000000000000000000081526004016104ff9061153b565b60405180910390fd5b60008190505b6001600280549050610520919061158a565b8110156105c157600260018261053691906115be565b81548110610547576105466115f2565b5b906000526020600020906003020160028281548110610569576105686115f2565b5b906000526020600020906003020160008201548160000155600182018160010190816105959190611637565b50600282018160020190816105aa9190611637565b5090505080806105b99061171f565b91505061050e565b5060028054806105d4576105d3611767565b5b60019003818190600052602060002090600302016000808201600090556001820160006106019190610af7565b6002820160006106119190610af7565b5050905560008190505b6001808054905061062c919061158a565b811015610692576001808261064191906115be565b81548110610652576106516115f2565b5b906000526020600020015460018281548110610671576106706115f2565b5b9060005260206000200181905550808061068a9061171f565b91505061061b565b5060018054806106a5576106a4611767565b5b6001900381819060005260206000200160009055905550565b60606002805480602002602001604051908101604052809291908181526020016000905b8282101561084257838290600052602060002090600302016040518060600160405290816000820154815260200160018201805461071f90611181565b80601f016020809104026020016040519081016040528092919081815260200182805461074b90611181565b80156107985780601f1061076d57610100808354040283529160200191610798565b820191906000526020600020905b81548152906001019060200180831161077b57829003601f168201915b505050505081526020016002820180546107b190611181565b80601f01602080910402602001604051908101604052809291908181526020018280546107dd90611181565b801561082a5780601f106107ff5761010080835404028352916020019161082a565b820191906000526020600020905b81548152906001019060200180831161080d57829003601f168201915b505050505081525050815260200190600101906106e2565b50505050905090565b610853610ad6565b60008054906101000a900473ffffffffffffffffffffffffffffffffffffffff1673ffffffffffffffffffffffffffffffffffffffff163373ffffffffffffffffffffffffffffffffffffffff16146108e1576040517f08c379a00000000000000000000000000000000000000000000000000000000081526004016108d8906114cf565b60405180910390fd5b6611c37937e080003373ffffffffffffffffffffffffffffffffffffffff16311015610942576040517f08c379a00000000000000000000000000000000000000000000000000000000081526004016109399061153b565b60405180910390fd5b600482604051610952919061146c565b90815260200160405180910390206040518060600160405290816000820154815260200160018201805461098590611181565b80601f01602080910402602001604051908101604052809291908181526020018280546109b190611181565b80156109fe5780601f106109d3576101008083540402835291602001916109fe565b820191906000526020600020905b8154815290600101906020018083116109e157829003601f168201915b50505050508152602001600282018054610a1790611181565b80601f0160208091040260200160405190810160405280929190818152602001828054610a4390611181565b8015610a905780601f10610a6557610100808354040283529160200191610a90565b820191906000526020600020905b815481529060010190602001808311610a7357829003601f168201915b5050505050815250509050919050565b6000838383604051602001610ab793929190610eb7565b6040516020818303038152906040528051906020012090509392505050565b60405180606001604052806000815260200160608152602001606081525090565b508054610b0390611181565b6000825580601f10610b155750610b34565b601f016020900490600052602060002090810190610b339190610b37565b5b50565b5b80821115610b50576000816000905550600101610b38565b5090565b6000604051905090565b600080fd5b600080fd5b6000819050919050565b610b7b81610b68565b8114610b8657600080fd5b50565b600081359050610b9881610b72565b92915050565b600080fd5b600080fd5b6000601f19601f8301169050919050565b7f4e487b7100000000000000000000000000000000000000000000000000000000600052604160045260246000fd5b610bf182610ba8565b810181811067ffffffffffffffff82111715610c1057610c0f610bb9565b5b80604052505050565b6000610c23610b54565b9050610c2f8282610be8565b919050565b600067ffffffffffffffff821115610c4f57610c4e610bb9565b5b610c5882610ba8565b9050602081019050919050565b82818337600083830152505050565b6000610c87610c8284610c34565b610c19565b905082815260208101848484011115610ca357610ca2610ba3565b5b610cae848285610c65565b509392505050565b600082601f830112610ccb57610cca610b9e565b5b8135610cdb848260208601610c74565b91505092915050565b600080600060608486031215610cfd57610cfc610b5e565b5b6000610d0b86828701610b89565b935050602084013567ffffffffffffffff811115610d2c57610d2b610b63565b5b610d3886828701610cb6565b925050604084013567ffffffffffffffff811115610d5957610d58610b63565b5b610d6586828701610cb6565b9150509250925092565b600060208284031215610d8557610d84610b5e565b5b6000610d9384828501610b89565b91505092915050565b6000819050919050565b610daf81610d9c565b82525050565b6000602082019050610dca6000830184610da6565b92915050565b610dd981610d9c565b8114610de457600080fd5b50565b600081359050610df681610dd0565b92915050565b600060208284031215610e1257610e11610b5e565b5b6000610e2084828501610de7565b91505092915050565b610e3281610b68565b82525050565b600081519050919050565b600082825260208201905092915050565b60005b83811015610e72578082015181840152602081019050610e57565b60008484015250505050565b6000610e8982610e38565b610e938185610e43565b9350610ea3818560208601610e54565b610eac81610ba8565b840191505092915050565b6000606082019050610ecc6000830186610e29565b8181036020830152610ede8185610e7e565b90508181036040830152610ef28184610e7e565b9050949350505050565b600081519050919050565b600082825260208201905092915050565b6000819050602082019050919050565b610f3181610b68565b82525050565b600082825260208201905092915050565b6000610f5382610e38565b610f5d8185610f37565b9350610f6d818560208601610e54565b610f7681610ba8565b840191505092915050565b6000606083016000830151610f996000860182610f28565b5060208301518482036020860152610fb18282610f48565b91505060408301518482036040860152610fcb8282610f48565b9150508091505092915050565b6000610fe48383610f81565b905092915050565b6000602082019050919050565b600061100482610efc565b61100e8185610f07565b93508360208202850161102085610f18565b8060005b8581101561105c578484038952815161103d8582610fd8565b945061104883610fec565b925060208a01995050600181019050611024565b50829750879550505050505092915050565b600060208201905081810360008301526110888184610ff9565b905092915050565b6000602082840312156110a6576110a5610b5e565b5b600082013567ffffffffffffffff8111156110c4576110c3610b63565b5b6110d084828501610cb6565b91505092915050565b60006060830160008301516110f16000860182610f28565b50602083015184820360208601526111098282610f48565b915050604083015184820360408601526111238282610f48565b9150508091505092915050565b6000602082019050818103600083015261114a81846110d9565b905092915050565b7f4e487b7100000000000000000000000000000000000000000000000000000000600052602260045260246000fd5b6000600282049050600182168061119957607f821691505b6020821081036111ac576111ab611152565b5b50919050565b60008190508160005260206000209050919050565b60006020601f8301049050919050565b600082821b905092915050565b6000600883026112147fffffffffffffffffffffffffffffffffffffffffffffffffffffffffffffffff826111d7565b61121e86836111d7565b95508019841693508086168417925050509392505050565b6000819050919050565b600061125b61125661125184610b68565b611236565b610b68565b9050919050565b6000819050919050565b61127583611240565b61128961128182611262565b8484546111e4565b825550505050565b600090565b61129e611291565b6112a981848461126c565b505050565b5b818110156112cd576112c2600082611296565b6001810190506112af565b5050565b601f821115611312576112e3816111b2565b6112ec846111c7565b810160208510156112fb578190505b61130f611307856111c7565b8301826112ae565b50505b505050565b600082821c905092915050565b600061133560001984600802611317565b1980831691505092915050565b600061134e8383611324565b9150826002028217905092915050565b61136782610e38565b67ffffffffffffffff8111156113805761137f610bb9565b5b61138a8254611181565b6113958282856112d1565b600060209050601f8311600181146113c857600084156113b6578287015190505b6113c08582611342565b865550611428565b601f1984166113d6866111b2565b60005b828110156113fe578489015182556001820191506020850194506020810190506113d9565b8683101561141b5784890151611417601f891682611324565b8355505b6001600288020188555050505b505050505050565b600081905092915050565b600061144682610e38565b6114508185611430565b9350611460818560208601610e54565b80840191505092915050565b6000611478828461143b565b915081905092915050565b7f43616c6c6572206d757374206265206f776e6572000000000000000000000000600082015250565b60006114b9601483610e43565b91506114c482611483565b602082019050919050565b600060208201905081810360008301526114e8816114ac565b9050919050565b7f53686f756c642068617665206d6f7265207468616e2035303020657468000000600082015250565b6000611525601d83610e43565b9150611530826114ef565b602082019050919050565b6000602082019050818103600083015261155481611518565b9050919050565b7f4e487b7100000000000000000000000000000000000000000000000000000000600052601160045260246000fd5b600061159582610b68565b91506115a083610b68565b92508282039050818111156115b8576115b761155b565b5b92915050565b60006115c982610b68565b91506115d483610b68565b92508282019050808211156115ec576115eb61155b565b5b92915050565b7f4e487b7100000000000000000000000000000000000000000000000000000000600052603260045260246000fd5b60008154905061163081611181565b9050919050565b81810361164557505061171d565b61164e82611621565b67ffffffffffffffff81111561166757611666610bb9565b5b6116718254611181565b61167c8282856112d1565b6000601f8311600181146116ab5760008415611699578287015490505b6116a38582611342565b865550611716565b601f1984166116b9876111b2565b96506116c4866111b2565b60005b828110156116ec578489015482556001820191506001850194506020810190506116c7565b868310156117095784890154611705601f891682611324565b8355505b6001600288020188555050505b5050505050505b565b600061172a82610b68565b91507fffffffffffffffffffffffffffffffffffffffffffffffffffffffffffffffff820361175c5761175b61155b565b5b600182019050919050565b7f4e487b7100000000000000000000000000000000000000000000000000000000600052603160045260246000fdfea264697066735822122029681670cef95531b4bada764892eabd38fdeb0c4b54129e261c3630cb7aae8864736f6c63430008100033",
  "immutableReferences": {},
  "source": "// SPDX-License-Identifier: MIT\n\npragma solidity ^0.8.0;\n\ncontract StarterContract{\n\n    address owner;\n\n    struct Person{\n        uint age;\n        string name;\n        string contact_address;\n    }\n\n    bytes32[] public hashPerson;\n\n    Person[] Creators;\n\n    mapping(bytes32 => Person) public personsHash;\n\n    mapping(string => Person) namePerson;\n\n    constructor (){\n        owner = msg.sender;\n    }\n\n    modifier onlyOwner{\n        require( msg.sender == owner,\"Caller must be owner\");\n        _;\n    }\n\n    modifier checkBalance{\n        require( address(msg.sender).balance >= 0.005 ether,\"Should have more than 500 eth\" );\n        _;\n    }\n\n    function addCreator(uint _age, string memory _name, string memory _contactAddress) public{\n        Person memory person;\n\n        person.age = _age;\n        person.name = _name;\n        person.contact_address = _contactAddress;\n\n        Creators.push(person);\n\n        bytes32 hash = getHash(_age,_name,_contactAddress);\n        hashPerson.push(hash);\n        personsHash[hash] = person;\n\n        namePerson[_name] = person;\n    }\n\n    function getHash(uint _age, string memory _name, string memory _contactAddress) internal pure returns(bytes32) {\n        return keccak256(abi.encode(_age, _name, _contactAddress));\n    }\n\n    function getCreators() public view returns(Person[] memory){\n        return Creators;\n    }\n\n    function removePerson(uint index) public onlyOwner checkBalance{\n        for(uint i = index; i < Creators.length -1; i++){\n            Creators[i] = Creators[i+1];\n        }\n        Creators.pop();\n        \n        for (uint i = index; i < hashPerson.length - 1; i++){\n            hashPerson[i] = hashPerson[i+1];\n        }\n        hashPerson.pop();\n    }\n\n    function getPerson(string memory _name) public view onlyOwner checkBalance returns(Person memory){\n       return namePerson[_name];\n    }\n\n\n}",
  "sourcePath": "/home/khadgachy07/Desktop/Creator/creator/contracts/StarterContract.sol",
  "compiler": {
    "name": "solc",
    "version": "0.8.16+commit.07a7930e.Emscripten.clang"
  },
  "schemaVersion": "3.4.9",
  "updatedAt": "2022-08-20T07:56:38.535Z",
  "networkType": "ethereum",
  "devdoc": {
    "kind": "dev",
    "methods": {},
    "version": 1
  },
  "userdoc": {
    "kind": "user",
    "methods": {},
    "version": 1
  }
}